S011000050726F796563746F322E737265638C
S11300000C9434000C9451000C9451000C94510045
S11300100C9451000C9451000C9451000C94510018
S11300200C9451000C9484050C9451000C945100D0
S11300300C9451000C9451000C94C4040C94510081
S11300400C9451000C9451000C943C060C945100F7
S11300500C9451000C9460000C9451000C945100C9
S11300600C9451000C94510011241FBECFEFD8E022
S1130070DEBFCDBF12E0A0E0B1E0E2E6FFE002C0E7
S113008005900D92A830B107D9F722E0A8E0B2E0BC
S113009001C01D92AB3AB207E1F70E942F010C9404
S11300A0AF070C94000080E480937C00EAE7F0E062
S11300B08FE8808310920902808180648083089590
S11300C01F920F920FB60F9211248F939F93EF9369
S11300D0FF93E0910902F0E080917800909179001B
S11300E0EE0FFF1FE050FF4F918380838091090240
S11300F08F5F8093090280910902843028F0109266
S1130100090281E080930802ECE7F0E0908180919D
S11301100902907F8F70892B8083EAE7F0E0808169
S113012080648083FF91EF919F918F910F900FBE18
S11301300F901F901895843060F42FB7F894E82F2F
S1130140F0E0EE0FFF1FE050FF4F808191812FBF41
S1130150089580E090E0089580910802882319F0C2
S11301601092080281E008958A3008F080E090E05F
S1130170880F991F880F991F880F991F0895AF92B0
S1130180BF92CF92DF92EF92FF921F93CF93DF93B0
S11301906B010E94B4007C0110E015C0C12FD0E0B7
S11301A0CC0FDD1F5601AC0EBD1EF5016081CE0DD6
S11301B0DF1DCE010E949D07F5016181CE010196EC
S11301C00E949D071F5F143048F3DF91CF911F9168
S11301D0FF90EF90DF90CF90BF90AF900895AF92D3
S11301E0BF92CF92DF92EF92FF920F931F93CF9320
S11301F0DF93EB010E94B4008C01D12C22C0ED2CC2
S1130200F12CEE0CFF1C5701A00EB11EC5010E947B
S11302109507C82EC50101960E949507FE01EE0DB3
S1130220FF1D90E0982F88278C2991838083885E16
S11302309340893E934020F08CED95E09183808338
S1130240D39483E08D15D8F6DF91CF911F910F9150
S1130250FF90EF90DF90CF90BF90AF9008950E94F1
S113026050050E9453000E9430060E94E9047894CD
S113027085E191E00E9473060E94FE04FDCF2FB732
S1130280F89460912202709123028091240290914B
S113029025022FBF0895FC0180E090E00FC0AC015F
S11302A0440F551F880F991F880F991F880F991F96
S11302B0840F951F820F911DC0973196208130EDD8
S11302C0320F3A3060F30895CF92DF92EF92FF92AB
S11302D00F931F930E943F0120912102213041F08E
S11302E018F0223099F15EC08BB180628BB95AC08C
S11302F00091100210911102209112023091130208
S11303006B017C01C01AD10AE20AF30A44EFC41655
S113031041E0D406E104F10408F444C030910F0232
S113032021E0232720930F02222321F02BB1206206
S11303302BB903C02BB12F7D2BB96093100270939E
S1130340110280931202909313022CC000911002A8
S11303501091110220911202309113026B017C0161
S1130360C01AD10AE20AF30A97018601043611057C
S113037021053105B8F030910F0221E023272093A5
S11303800F02222321F02BB120622BB903C02BB121
S11303902F7D2BB960931002709311028093120287
S11303A0909313021F910F91FF90EF90DF90CF90E5
S11303B008958F929F92AF92BF92CF92DF92EF9265
S11303C0FF920F931F93CF93DF937C01D62EEA0104
S11303D089010E943F01F701208130E002C0359578
S11303E02795DA94E2F7322F317028813217D1F051
S11303F0F801C080D180E280F3804B015C018C184D
S11304009D08AE08BF0822E382169104A104B1043A
S113041058F038836083718382839383311106C0DB
S113042081E005C080E003C080E001C080E0DF918E
S1130430CF911F910F91FF90EF90DF90CF90BF90DD
S1130440AF909F908F900895FF920F931F93CF9337
S1130450DF93CDB7DEB728970FB6F894DEBF0FBE93
S1130460CDBF0E94AC00811117C019C0812F0E941A
S11304709B009C01A8EEB3E00E9472072FEF33E0CB
S113048040E050E00E945007B90168517C4F812F31
S11304900E94E1051F5F01C010E0143038F328E129
S11304A032E049E051E066E089E290E00E94D9013F
S11304B0811112C029C00F2D10E08F2D0E9420063B
S11304C0000F111FE1E0F0E0EC0FFD1FE00FF11F42
S11304D091838083F39401C0F12C83E08F1558F746
S11304E0BE016F5F7F4F809120020E94BF0083E3B3
S11304F091E00E9473068091200290E00E948006A1
S113050080E391E00E94730624E132E048E051E088
S113051067E089E290E00E94D9018823B9F08091D4
S1130520200290E001966AE070E00E943C0780930C
S1130530200285E491E00E9473068091200290E0FD
S11305400E94800680E391E00E94730628960FB60D
S1130550F894DEBF0FBECDBFDF91CF911F910F91F5
S1130560FF900895CF92DF92EF92FF921F93CF9363
S1130570DF93CDB7DEB728970FB6F894DEBF0FBE72
S1130580CDBF0E943F016B017C0180910B029091D1
S11305900C02A0910D02B0910E02A7019601281B36
S11305A0390B4A0B5B0BDA01C9018C3D9540A1055F
S11305B0B105D0F1BE016F5F7F4F80910A020E94A6
S11305C0EF0010E010C0E12FF0E0EE0FFF1F41E05C
S11305D050E04C0F5D1FE40FF51F60817181812F86
S11305E00E94E1051F5F143070F383E591E00E94DF
S11305F0730680910A0290E00E94800680E391E0F5
S11306000E94730680910A0290E001966AE070E00D
S11306100E943C0780930A02C0920B02D0920C0203
S1130620E0920D02F0920E0224E132E048E051E043
S113063067E089E290E00E94D901882381F010925A
S11306400A020E943F0160930B0270930C02809394
S11306500D0290930E0287E691E00E94730628969D
S11306600FB6F894DEBF0FBECDBFDF91CF911F91BF
S1130670FF90EF90DF90CF900895CF92DF92FF929A
S11306800F931F93CF93DF93CDB7DEB728970FB6A1
S1130690F894DEBF0FBECDBF8C01FC019081933571
S11306A051F58181803338F1843328F522812A334E
S11306B011F50F2EF0EDFF2EF02DF80EC801039664
S11306C00E944B016C01BC018F2D0E94E10585E95C
S11306D091E00E947306F80181810E946C068AE908
S11306E091E00E947306C6010E9480068CE991E0A5
S11306F00E9473061DC1913461F5F8018181803334
S113070040F1843330F522812A3319F50F2EF0EDB0
S1130710FF2EF02DF80EC80103960E944B016C01C8
S1130720682F8F2D0E94070681EA91E00E947306CC
S1130730F80181810E946C068AE991E00E947306A7
S1130740C60199270E94800686EA91E00E947306FA
S1130750EFC09335F1F5F80181818134D1F58281BF
S11307608635B9F583818534A1F584818A3389F589
S1130770C80105960E944B01D82EF9E0F81708F439
S1130780D12CF12C10C00F2D10E08F2D0E942006CB
S1130790000F111FE1E0F0E0EC0FFD1FE00FF11F6F
S11307A091838083F39483E08F1568F7BE016F5FB4
S11307B07F4F8D2D0E94BF008CEA91E00E9473064A
S11307C08D2D90E00E94800680E391E00E947306E4
S11307D0AFC09035E1F5F80181818C34C1F5828197
S11307E08134A9F58381893591F584818A3379F53A
S11307F0C80105960E944B01082F8A3008F000E0DA
S1130800BE016F5F7F4F802F0E94EF0010E010C089
S1130810E12FF0E0EE0FFF1F81E090E08C0F9D1FB1
S1130820E80FF91F60817181812F0E94E1051F5F2C
S1130830143070F383E591E00E947306802F90E0FA
S11308400E94800680E391E00E94730671C09D348B
S1130850C9F5F80181818F34A9F58281843491F539
S11308608381853479F584818A3361F585818D347A
S113087019F4109221020DC0853431F481E0809383
S1130880210210920A0205C0853519F482E0809392
S113089021028BEB91E00E947306F80185818D346F
S11308A029F0853431F48EE891E005C087E891E0C1
S11308B002C082E891E00E94730680E391E00E9406
S11308C0730636C0933549F5F8018181843529F5DD
S11308D08281813411F583818435F9F482EC91E0CD
S11308E00E94730610E012C087E991E00E9473062B
S11308F0812F90E00E9480068AE991E00E947306AD
S1130900812F0E9420060E9480061F5F143060F32E
S113091080E391E00E9473060BC083ED91E00E9496
S11309207306C8010E94730680E391E00E94730677
S113093028960FB6F894DEBF0FBECDBFDF91CF91DE
S11309401F910F91FF90DF90CF900895CF93DF9385
S1130950CDB7DEB7A0970FB6F894DEBF0FBECDBFFC
S113096060E2CE0101960E94F906882321F0CE01AF
S113097001960E943D03A0960FB6F894DEBF0FBE09
S1130980CDBFDF91CF9108951F920F920FB60F92B2
S113099011248F939F93AF93BF93809122029091E0
S11309A02302A0912402B09125020196A11DB11D3C
S11309B08093220290932302A0932402B0932502F1
S11309C0BF91AF919F918F910F900FBE0F901F9089
S11309D018958AB180628AB98BB180628BB98AB169
S11309E08F728AB98BB1806D8BB982E084BD93E03C
S11309F095BD99EF97BD80936E0008950E946401A0
S1130A002CE132E04AE051E064E089E290E00E94A7
S1130A10D901882341F18091210290E0019663E09D
S1130A2070E00E943C0780932102813011F41092FF
S1130A300A0285EE91E00E947306809121028130C2
S1130A4049F018F0823059F00EC08AE291E00E9419
S1130A50730609C087EF91E00E94730604C080E02A
S1130A6092E00E94730680912102813039F018F0DF
S1130A70823039F008950E94240208950E94B2023F
S1130A8008950E94A60408958617970730F0481722
S1130A90590728F4842F952F0895862F972F0895AA
S1130AA084B1866084B982EA809380008AE180936D
S1130AB081008FE39CE9909387008093860088EB04
S1130AC09BE0909389008093880090938B0080939F
S1130AD08A0084B1886084B98AB188608AB9109226
S1130AE0B00082E08093B1001092B20081E0809364
S1130AF0700095B1986095B99BB198609BB9EBE093
S1130B00F1E08083818308951F920F920FB60F92B4
S1130B1011242F933F938F939F93EF93FF9380918F
S1130B2026029091270293959093270280932602A0
S1130B3080910B01882381F02091110130911201E1
S1130B4080912602909127028217930728F085B19D
S1130B50877F85B910920B0180910C01882381F065
S1130B602091130130911401809126029091270263
S1130B708217930728F08BB1877F8BB910920C01F1
S1130B80809126029091270280349C4978F010923B
S1130B9027021092260285B1886085B98BB18860DE
S1130BA08BB9EBE0F1E081E080838183FF91EF91E9
S1130BB09F918F913F912F910F900FBE0F901F9097
S1130BC01895CF93843008F59B01C82F40ED57E06A
S1130BD068EE73E0C9010E944405880F991FEC2F49
S1130BE0F0E0EE0FFF1FE35FFE4F91838083CC2381
S1130BF019F0C13031F009C09093890080938800C6
S1130C0004C090938B0080938A00CF910895CF9372
S1130C10C82F653B08F064EB262F30E0A8EEB3E064
S1130C200E94720724EB30E040E050E00E9450073D
S1130C30B90168517C4F8C2F0E94E105CF91089532
S1130C40843058F4E82FF0E0EE0FFF1FE35FFE4F0F
S1130C508081918196958795089588EE93E0089513
S1130C601092C50087E68093C40088E98093C10090
S1130C7086E08093C20008951F920F920FB60F92E0
S1130C8011242F933F938F939F93EF93FF9330916E
S1130C90C60080916A0290E001968F739078992340
S1130CA024F40197806C9F6F0196209169022817A4
S1130CB041F0E0916A02F0E0E559FD4F3083809302
S1130CC06A02FF91EF919F918F913F912F910F9025
S1130CD00FBE0F901F9018959091C00095FFFCCF08
S1130CE08093C6000895CF93DF93EC0103C021964F
S1130CF00E946C0688818111FACFDF91CF9108950B
S1130D001F93CF93DF9300D000D000D0CDB7DEB7D0
S1130D10AC01892B91F580E30E946C063FC09A01D7
S1130D20ADECBCEC0E9472079695879596958795D5
S1130D30969587959C01220F331F880F991F880F62
S1130D40991F880F991F820F931F9A01281B390B33
S1130D50C901E1E0F0E0EC0FFD1FE10FF11D805D42
S1130D6080839A010E947207AC0156954795569567
S1130D704795569547951F5F01C010E041155105F1
S1130D8071F60AC01150E1E0F0E0EC0FFD1FE10F35
S1130D90F11D80810E946C061111F4CF26960FB6C6
S1130DA0F894DEBF0FBECDBFDF91CF911F910895A0
S1130DB020916A029091690281E0291301C080E0C8
S1130DC00895E0916902F0E0E559FD4F808120919A
S1130DD0690230E02F5F3F4F2F733078332334F4B0
S1130DE021503109206C3F6F2F5F3F4F20936902E0
S1130DF008951F93CF93DF93EC01162F35C00E9403
S1130E00E1068D3089F18A3019F5E0916802F0E04D
S1130E10E85DFD4F108240E005C0FE01E40FF11DC6
S1130E2080834F5F842F90E0212F30E021503109DF
S1130E308217930734F4FC01E85DFD4F8081811132
S1130E40ECCFC40FD11D18821092680281E010C04B
S1130E50E0916802EF3340F491E09E0F90936802B2
S1130E60F0E0E85DFD4F80830E94D8068111C7CF72
S1130E70DF91CF911F91089597FB072E16F40094EC
S1130E8007D077FD09D00E94810707FC05D03EF406
S1130E90909581959F4F0895709561957F4F089522
S1130EA0A1E21A2EAA1BBB1BFD010DC0AA1FBB1F6A
S1130EB0EE1FFF1FA217B307E407F50720F0A21BDC
S1130EC0B30BE40BF50B661F771F881F991F1A9449
S1130ED069F760957095809590959B01AC01BD0173
S1130EE0CF010895A29FB001B39FC001A39F700DCD
S1130EF0811D1124911DB29F700D811D1124911D1E
S1130F000895AA1BBB1B51E107C0AA1FBB1FA6174C
S1130F10B70710F0A61BB70B881F991F5A95A9F79E
S1130F2080959095BC01CD010895F999FECF92BDAD
S1130F3081BDF89A992780B50895262FF999FECF97
S1130F4092BD81BDF89A019700B4021639F01FBA18
S1130F5020BD0FB6F894FA9AF99A0FBE0895F89442
S1050F60FFCFBD
S1130F6200020002000200020101010101B80BB8F3
S1130F720BB80BB80B53697374656D61206C69739C
S1130F82746F2E204D6F646F3A204D414E55414C83
S1130F920D0A00477561726461646F20656E207387
S1130FA26C6F742000536C6F742061637469766F84
S1130FB23A2000526570726F64756369656E646F7E
S1130FC220736C6F7420005265696E696369616E87
S1130FD2646F20726570726F64756363696F6E0DFE
S1130FE20A0055415254004D414E55414C0045456D
S1130FF250524F4D004F4B2053003D0075730D0A64
S1131002004F4B2041006465670D0A004775617209
S11310126461646F20736C6F7420004D6F646F3A67
S11310222000506F736963696F6E6573202875734E
S1131032293A00434D4420646573636F6E6F63699C
S1131042646F3A20004D6F646F2063616D62696161
S1131052646F20613A2000454550524F4D0D0A00FD
S10B1062554152540D0A00002F
S9030000FC
